{"abi":[{"type":"constructor","inputs":[{"name":"myContractAddress","type":"address","internalType":"address"}],"stateMutability":"nonpayable"},{"type":"function","name":"getFlips","inputs":[],"outputs":[{"name":"","type":"uint8[10]","internalType":"uint8[10]"}],"stateMutability":"view"},{"type":"function","name":"myContract","inputs":[],"outputs":[{"name":"","type":"address","internalType":"contract MyContract"}],"stateMutability":"view"},{"type":"function","name":"owner","inputs":[],"outputs":[{"name":"","type":"address","internalType":"address"}],"stateMutability":"view"},{"type":"function","name":"renounceOwnership","inputs":[],"outputs":[],"stateMutability":"nonpayable"},{"type":"function","name":"seed","inputs":[],"outputs":[{"name":"","type":"string","internalType":"string"}],"stateMutability":"view"},{"type":"function","name":"seedRotation","inputs":[{"name":"NewSeed","type":"string","internalType":"string"}],"outputs":[],"stateMutability":"nonpayable"},{"type":"function","name":"transferOwnership","inputs":[{"name":"newOwner","type":"address","internalType":"address"}],"outputs":[],"stateMutability":"nonpayable"},{"type":"function","name":"userInput","inputs":[{"name":"Guesses","type":"uint8[10]","internalType":"uint8[10]"}],"outputs":[{"name":"","type":"bool","internalType":"bool"}],"stateMutability":"view"},{"type":"event","name":"OwnershipTransferred","inputs":[{"name":"previousOwner","type":"address","indexed":true,"internalType":"address"},{"name":"newOwner","type":"address","indexed":true,"internalType":"address"}],"anonymous":false},{"type":"error","name":"OwnableInvalidOwner","inputs":[{"name":"owner","type":"address","internalType":"address"}]},{"type":"error","name":"OwnableUnauthorizedAccount","inputs":[{"name":"account","type":"address","internalType":"address"}]},{"type":"error","name":"SeedTooShort","inputs":[]}],"bytecode":{"object":"0x60806040523480156200001157600080fd5b5060405162000bce38038062000bce833981016040819052620000349162000107565b33806200005b57604051631e4fbdf760e01b81526000600482015260240160405180910390fd5b6200006681620000b7565b5060405180606001604052806037815260200162000b9760379139600190620000909082620001e0565b50600280546001600160a01b0319166001600160a01b0392909216919091179055620002ac565b600080546001600160a01b038381166001600160a01b0319831681178455604051919092169283917f8be0079c531659141344cd1fd0a4f28419497f9722a3daafe3b4186f6b6457e09190a35050565b6000602082840312156200011a57600080fd5b81516001600160a01b03811681146200013257600080fd5b9392505050565b634e487b7160e01b600052604160045260246000fd5b600181811c908216806200016457607f821691505b6020821081036200018557634e487b7160e01b600052602260045260246000fd5b50919050565b601f821115620001db576000816000526020600020601f850160051c81016020861015620001b65750805b601f850160051c820191505b81811015620001d757828155600101620001c2565b5050505b505050565b81516001600160401b03811115620001fc57620001fc62000139565b62000214816200020d84546200014f565b846200018b565b602080601f8311600181146200024c5760008415620002335750858301515b600019600386901b1c1916600185901b178555620001d7565b600085815260208120601f198616915b828110156200027d578886015182559484019460019091019084016200025c565b50858210156200029c5787850151600019600388901b60f8161c191681555b5050505050600190811b01905550565b6108db80620002bc6000396000f3fe608060405234801561001057600080fd5b50600436106100885760003560e01c80638da5cb5b1161005b5780638da5cb5b146100dd578063bc33657a14610102578063ddabf9b214610115578063f2fde38b1461013857600080fd5b8063272368221461008d5780635ff7a0bd146100a2578063715018a6146100c05780637d94792a146100c8575b600080fd5b6100a061009b366004610528565b61014b565b005b6100aa61018b565b6040516100b791906105d9565b60405180910390f35b6100a0610315565b6100d0610329565b6040516100b7919061060e565b6000546001600160a01b03165b6040516001600160a01b0390911681526020016100b7565b6002546100ea906001600160a01b031681565b61012861012336600461065d565b6103b7565b60405190151581526020016100b7565b6100a0610146366004610688565b610433565b610153610476565b80518190600a8110156101795760405163cde2a69360e01b815260040160405180910390fd5b60016101858482610743565b50505050565b6101936104f3565b6000600180546101a2906106b8565b80601f01602080910402602001604051908101604052809291908181526020018280546101ce906106b8565b801561021b5780601f106101f05761010080835404028352916020019161021b565b820191906000526020600020905b8154815290600101906020018083116101fe57829003601f168201915b505050505090506000815190506102306104f3565b600061023d600a84610819565b905060005b600a81101561030b57600085610258848461082d565b8151811061026857610268610858565b016020908101516040516001600160f81b03199091169181019190915242602182015260410160408051601f19818403018152919052805160209091012090506102b360028261086e565b6000036102e05760018483600a81106102ce576102ce610858565b60ff9092166020929092020152610302565b60008483600a81106102f4576102f4610858565b60ff90921660209290920201525b50600101610242565b5090949350505050565b61031d610476565b61032760006104a3565b565b60018054610336906106b8565b80601f0160208091040260200160405190810160405280929190818152602001828054610362906106b8565b80156103af5780601f10610384576101008083540402835291602001916103af565b820191906000526020600020905b81548152906001019060200180831161039257829003601f168201915b505050505081565b6000806103c261018b565b905060005b600a811015610429578181600a81106103e2576103e2610858565b602002015160ff168482600a81106103fc576103fc610858565b60200201602081019061040f9190610882565b60ff1614610421575060009392505050565b6001016103c7565b5060019392505050565b61043b610476565b6001600160a01b03811661046a57604051631e4fbdf760e01b8152600060048201526024015b60405180910390fd5b610473816104a3565b50565b6000546001600160a01b031633146103275760405163118cdaa760e01b8152336004820152602401610461565b600080546001600160a01b038381166001600160a01b0319831681178455604051919092169283917f8be0079c531659141344cd1fd0a4f28419497f9722a3daafe3b4186f6b6457e09190a35050565b604051806101400160405280600a906020820280368337509192915050565b634e487b7160e01b600052604160045260246000fd5b60006020828403121561053a57600080fd5b813567ffffffffffffffff8082111561055257600080fd5b818401915084601f83011261056657600080fd5b81358181111561057857610578610512565b604051601f8201601f19908116603f011681019083821181831017156105a0576105a0610512565b816040528281528760208487010111156105b957600080fd5b826020860160208301376000928101602001929092525095945050505050565b6101408101818360005b600a81101561060557815160ff168352602092830192909101906001016105e3565b50505092915050565b60006020808352835180602085015260005b8181101561063c57858101830151858201604001528201610620565b506000604082860101526040601f19601f8301168501019250505092915050565b600061014080838503121561067157600080fd5b83818401111561068057600080fd5b509092915050565b60006020828403121561069a57600080fd5b81356001600160a01b03811681146106b157600080fd5b9392505050565b600181811c908216806106cc57607f821691505b6020821081036106ec57634e487b7160e01b600052602260045260246000fd5b50919050565b601f82111561073e576000816000526020600020601f850160051c8101602086101561071b5750805b601f850160051c820191505b8181101561073a57828155600101610727565b5050505b505050565b815167ffffffffffffffff81111561075d5761075d610512565b6107718161076b84546106b8565b846106f2565b602080601f8311600181146107a6576000841561078e5750858301515b600019600386901b1c1916600185901b17855561073a565b600085815260208120601f198616915b828110156107d5578886015182559484019460019091019084016107b6565b50858210156107f35787850151600019600388901b60f8161c191681555b5050505050600190811b01905550565b634e487b7160e01b600052601260045260246000fd5b60008261082857610828610803565b500490565b808202811582820484141761085257634e487b7160e01b600052601160045260246000fd5b92915050565b634e487b7160e01b600052603260045260246000fd5b60008261087d5761087d610803565b500690565b60006020828403121561089457600080fd5b813560ff811681146106b157600080fdfea2646970667358221220ab387b29938a89f852633f9a63c4346f27a442086a93d2d0b2a8c5f3383c13cd64736f6c634300081800334974206973206120676f6f6420707261637469636520746f20726f74617465207365656473206f6674656e20696e2067616d626c696e67","linkReferences":{}},"methodIdentifiers":{"getFlips()":"5ff7a0bd","myContract()":"bc33657a","owner()":"8da5cb5b","renounceOwnership()":"715018a6","seed()":"7d94792a","seedRotation(string)":"27236822","transferOwnership(address)":"f2fde38b","userInput(uint8[10])":"ddabf9b2"},"id":39}