{"abi":[{"type":"constructor","inputs":[],"stateMutability":"nonpayable"},{"type":"function","name":"UPGRADE_INTERFACE_VERSION","inputs":[],"outputs":[{"name":"","type":"string","internalType":"string"}],"stateMutability":"view"},{"type":"function","name":"initialize","inputs":[{"name":"initialOwner","type":"address","internalType":"address"}],"outputs":[],"stateMutability":"nonpayable"},{"type":"function","name":"owner","inputs":[],"outputs":[{"name":"","type":"address","internalType":"address"}],"stateMutability":"view"},{"type":"function","name":"proxiableUUID","inputs":[],"outputs":[{"name":"","type":"bytes32","internalType":"bytes32"}],"stateMutability":"view"},{"type":"function","name":"renounceOwnership","inputs":[],"outputs":[],"stateMutability":"nonpayable"},{"type":"function","name":"transferOwnership","inputs":[{"name":"newOwner","type":"address","internalType":"address"}],"outputs":[],"stateMutability":"nonpayable"},{"type":"function","name":"upgradeToAndCall","inputs":[{"name":"newImplementation","type":"address","internalType":"address"},{"name":"data","type":"bytes","internalType":"bytes"}],"outputs":[],"stateMutability":"payable"},{"type":"event","name":"Initialized","inputs":[{"name":"version","type":"uint64","indexed":false,"internalType":"uint64"}],"anonymous":false},{"type":"event","name":"OwnershipTransferred","inputs":[{"name":"previousOwner","type":"address","indexed":true,"internalType":"address"},{"name":"newOwner","type":"address","indexed":true,"internalType":"address"}],"anonymous":false},{"type":"event","name":"Upgraded","inputs":[{"name":"implementation","type":"address","indexed":true,"internalType":"address"}],"anonymous":false},{"type":"error","name":"AddressEmptyCode","inputs":[{"name":"target","type":"address","internalType":"address"}]},{"type":"error","name":"ERC1967InvalidImplementation","inputs":[{"name":"implementation","type":"address","internalType":"address"}]},{"type":"error","name":"ERC1967NonPayable","inputs":[]},{"type":"error","name":"FailedInnerCall","inputs":[]},{"type":"error","name":"InvalidInitialization","inputs":[]},{"type":"error","name":"NotInitializing","inputs":[]},{"type":"error","name":"OwnableInvalidOwner","inputs":[{"name":"owner","type":"address","internalType":"address"}]},{"type":"error","name":"OwnableUnauthorizedAccount","inputs":[{"name":"account","type":"address","internalType":"address"}]},{"type":"error","name":"UUPSUnauthorizedCallContext","inputs":[]},{"type":"error","name":"UUPSUnsupportedProxiableUUID","inputs":[{"name":"slot","type":"bytes32","internalType":"bytes32"}]}],"bytecode":{"object":"0x60a06040523060805234801561001457600080fd5b5061001d610022565b6100d4565b7ff0c57e16840df040f15088dc2f81fe391c3923bec73e23a9662efc9c229c6a00805468010000000000000000900460ff16156100725760405163f92ee8a960e01b815260040160405180910390fd5b80546001600160401b03908116146100d15780546001600160401b0319166001600160401b0390811782556040519081527fc7f505b2f371ae2175ee4913f4499e1f2633a7b5936321eed1cdaeb6115181d29060200160405180910390a15b50565b6080516109ee6100fd600039600081816103420152818161036b01526104b101526109ee6000f3fe6080604052600436106100705760003560e01c80638da5cb5b1161004e5780638da5cb5b146100c7578063ad3cb1cc1461010e578063c4d66de81461014c578063f2fde38b1461016c57600080fd5b80634f1ef2861461007557806352d1902d1461008a578063715018a6146100b2575b600080fd5b61008861008336600461082f565b61018c565b005b34801561009657600080fd5b5061009f6101ab565b6040519081526020015b60405180910390f35b3480156100be57600080fd5b506100886101c8565b3480156100d357600080fd5b507f9016d09d72d40fdae2fd8ceac6b6234c7706214fd39c1cd1e609a0528c199300546040516001600160a01b0390911681526020016100a9565b34801561011a57600080fd5b5061013f604051806040016040528060058152602001640352e302e360dc1b81525081565b6040516100a99190610915565b34801561015857600080fd5b50610088610167366004610948565b6101dc565b34801561017857600080fd5b50610088610187366004610948565b6102f4565b610194610337565b61019d826103dc565b6101a782826103e4565b5050565b60006101b56104a6565b5060008051602061099983398151915290565b6101d06104ef565b6101da600061054a565b565b7ff0c57e16840df040f15088dc2f81fe391c3923bec73e23a9662efc9c229c6a008054600160401b810460ff16159067ffffffffffffffff166000811580156102225750825b905060008267ffffffffffffffff16600114801561023f5750303b155b90508115801561024d575080155b1561026b5760405163f92ee8a960e01b815260040160405180910390fd5b845467ffffffffffffffff19166001178555831561029557845460ff60401b1916600160401b1785555b61029e866105bb565b6102a66105cc565b83156102ec57845460ff60401b19168555604051600181527fc7f505b2f371ae2175ee4913f4499e1f2633a7b5936321eed1cdaeb6115181d29060200160405180910390a15b505050505050565b6102fc6104ef565b6001600160a01b03811661032b57604051631e4fbdf760e01b8152600060048201526024015b60405180910390fd5b6103348161054a565b50565b306001600160a01b037f00000000000000000000000000000000000000000000000000000000000000001614806103be57507f00000000000000000000000000000000000000000000000000000000000000006001600160a01b03166103b2600080516020610999833981519152546001600160a01b031690565b6001600160a01b031614155b156101da5760405163703e46dd60e11b815260040160405180910390fd5b6103346104ef565b816001600160a01b03166352d1902d6040518163ffffffff1660e01b8152600401602060405180830381865afa92505050801561043e575060408051601f3d908101601f1916820190925261043b91810190610963565b60015b61046657604051634c9c8ce360e01b81526001600160a01b0383166004820152602401610322565b600080516020610999833981519152811461049757604051632a87526960e21b815260048101829052602401610322565b6104a183836105d4565b505050565b306001600160a01b037f000000000000000000000000000000000000000000000000000000000000000016146101da5760405163703e46dd60e11b815260040160405180910390fd5b336105217f9016d09d72d40fdae2fd8ceac6b6234c7706214fd39c1cd1e609a0528c199300546001600160a01b031690565b6001600160a01b0316146101da5760405163118cdaa760e01b8152336004820152602401610322565b7f9016d09d72d40fdae2fd8ceac6b6234c7706214fd39c1cd1e609a0528c19930080546001600160a01b031981166001600160a01b03848116918217845560405192169182907f8be0079c531659141344cd1fd0a4f28419497f9722a3daafe3b4186f6b6457e090600090a3505050565b6105c361062a565b61033481610673565b6101da61062a565b6105dd8261067b565b6040516001600160a01b038316907fbc7cd75a20ee27fd9adebab32041f755214dbc6bffa90cc0225b39da2e5c2d3b90600090a2805115610622576104a182826106e0565b6101a7610756565b7ff0c57e16840df040f15088dc2f81fe391c3923bec73e23a9662efc9c229c6a0054600160401b900460ff166101da57604051631afcd79f60e31b815260040160405180910390fd5b6102fc61062a565b806001600160a01b03163b6000036106b157604051634c9c8ce360e01b81526001600160a01b0382166004820152602401610322565b60008051602061099983398151915280546001600160a01b0319166001600160a01b0392909216919091179055565b6060600080846001600160a01b0316846040516106fd919061097c565b600060405180830381855af49150503d8060008114610738576040519150601f19603f3d011682016040523d82523d6000602084013e61073d565b606091505b509150915061074d858383610775565b95945050505050565b34156101da5760405163b398979f60e01b815260040160405180910390fd5b60608261078a57610785826107d4565b6107cd565b81511580156107a157506001600160a01b0384163b155b156107ca57604051639996b31560e01b81526001600160a01b0385166004820152602401610322565b50805b9392505050565b8051156107e45780518082602001fd5b604051630a12f52160e11b815260040160405180910390fd5b80356001600160a01b038116811461081457600080fd5b919050565b634e487b7160e01b600052604160045260246000fd5b6000806040838503121561084257600080fd5b61084b836107fd565b9150602083013567ffffffffffffffff8082111561086857600080fd5b818501915085601f83011261087c57600080fd5b81358181111561088e5761088e610819565b604051601f8201601f19908116603f011681019083821181831017156108b6576108b6610819565b816040528281528860208487010111156108cf57600080fd5b8260208601602083013760006020848301015280955050505050509250929050565b60005b8381101561090c5781810151838201526020016108f4565b50506000910152565b60208152600082518060208401526109348160408501602087016108f1565b601f01601f19169190910160400192915050565b60006020828403121561095a57600080fd5b6107cd826107fd565b60006020828403121561097557600080fd5b5051919050565b6000825161098e8184602087016108f1565b919091019291505056fe360894a13ba1a3210667c828492db98dca3e2076cc3735a920a3ca505d382bbca26469706673582212202070278473d195b66a5b4c37593f6f584d745d68a76c6c03b43c45334d78142164736f6c63430008180033","linkReferences":{}},"methodIdentifiers":{"UPGRADE_INTERFACE_VERSION()":"ad3cb1cc","initialize(address)":"c4d66de8","owner()":"8da5cb5b","proxiableUUID()":"52d1902d","renounceOwnership()":"715018a6","transferOwnership(address)":"f2fde38b","upgradeToAndCall(address,bytes)":"4f1ef286"},"id":41}