{"abi":[{"type":"constructor","inputs":[{"name":"myContractAddress","type":"address","internalType":"address"}],"stateMutability":"nonpayable"},{"type":"function","name":"getFlips","inputs":[],"outputs":[{"name":"","type":"uint8[10]","internalType":"uint8[10]"}],"stateMutability":"view"},{"type":"function","name":"myContract","inputs":[],"outputs":[{"name":"","type":"address","internalType":"contract MyContract"}],"stateMutability":"view"},{"type":"function","name":"owner","inputs":[],"outputs":[{"name":"","type":"address","internalType":"address"}],"stateMutability":"view"},{"type":"function","name":"renounceOwnership","inputs":[],"outputs":[],"stateMutability":"nonpayable"},{"type":"function","name":"seed","inputs":[],"outputs":[{"name":"","type":"string","internalType":"string"}],"stateMutability":"view"},{"type":"function","name":"seedRotation","inputs":[{"name":"NewSeed","type":"string","internalType":"string"}],"outputs":[],"stateMutability":"nonpayable"},{"type":"function","name":"transferOwnership","inputs":[{"name":"newOwner","type":"address","internalType":"address"}],"outputs":[],"stateMutability":"nonpayable"},{"type":"function","name":"userInput","inputs":[{"name":"Guesses","type":"uint8[10]","internalType":"uint8[10]"}],"outputs":[{"name":"","type":"bool","internalType":"bool"}],"stateMutability":"view"},{"type":"event","name":"OwnershipTransferred","inputs":[{"name":"previousOwner","type":"address","indexed":true,"internalType":"address"},{"name":"newOwner","type":"address","indexed":true,"internalType":"address"}],"anonymous":false},{"type":"error","name":"OwnableInvalidOwner","inputs":[{"name":"owner","type":"address","internalType":"address"}]},{"type":"error","name":"OwnableUnauthorizedAccount","inputs":[{"name":"account","type":"address","internalType":"address"}]}],"bytecode":{"object":"0x60806040523480156200001157600080fd5b5060405162000cd538038062000cd5833981016040819052620000349162000107565b33806200005b57604051631e4fbdf760e01b81526000600482015260240160405180910390fd5b6200006681620000b7565b5060405180606001604052806037815260200162000c9e60379139600190620000909082620001e0565b50600280546001600160a01b0319166001600160a01b0392909216919091179055620002ac565b600080546001600160a01b038381166001600160a01b0319831681178455604051919092169283917f8be0079c531659141344cd1fd0a4f28419497f9722a3daafe3b4186f6b6457e09190a35050565b6000602082840312156200011a57600080fd5b81516001600160a01b03811681146200013257600080fd5b9392505050565b634e487b7160e01b600052604160045260246000fd5b600181811c908216806200016457607f821691505b6020821081036200018557634e487b7160e01b600052602260045260246000fd5b50919050565b601f821115620001db576000816000526020600020601f850160051c81016020861015620001b65750805b601f850160051c820191505b81811015620001d757828155600101620001c2565b5050505b505050565b81516001600160401b03811115620001fc57620001fc62000139565b62000214816200020d84546200014f565b846200018b565b602080601f8311600181146200024c5760008415620002335750858301515b600019600386901b1c1916600185901b178555620001d7565b600085815260208120601f198616915b828110156200027d578886015182559484019460019091019084016200025c565b50858210156200029c5787850151600019600388901b60f8161c191681555b5050505050600190811b01905550565b6109e280620002bc6000396000f3fe608060405234801561001057600080fd5b50600436106100885760003560e01c80638da5cb5b1161005b5780638da5cb5b146100dd578063bc33657a14610102578063ddabf9b214610115578063f2fde38b1461013857600080fd5b8063272368221461008d5780635ff7a0bd146100a2578063715018a6146100c05780637d94792a146100c8575b600080fd5b6100a061009b366004610618565b61014b565b005b6100aa610280565b6040516100b791906106c9565b60405180910390f35b6100a061040a565b6100d061041e565b6040516100b791906106fe565b6000546001600160a01b03165b6040516001600160a01b0390911681526020016100b7565b6002546100ea906001600160a01b031681565b61012861012336600461074d565b6104ac565b60405190151581526020016100b7565b6100a0610146366004610778565b610528565b610153610566565b600a815110156101aa5760405162461bcd60e51b815260206004820152601e60248201527f53656564206c656e677468206d757374206265203130206f72206d6f7265000060448201526064015b60405180910390fd5b80518190600560008267ffffffffffffffff8111156101cb576101cb610602565b6040519080825280601f01601f1916602001820160405280156101f5576020820181803683370190505b50905060005b8381101561026b5760008461021085846107be565b61021a91906107ed565b905085828151811061022e5761022e610801565b602001015160f81c60f81b83828151811061024b5761024b610801565b60200101906001600160f81b031916908160001a905350506001016101fb565b506001610278828261089e565b505050505050565b6102886105e3565b60006001805461029790610817565b80601f01602080910402602001604051908101604052809291908181526020018280546102c390610817565b80156103105780601f106102e557610100808354040283529160200191610310565b820191906000526020600020905b8154815290600101906020018083116102f357829003601f168201915b505050505090506000815190506103256105e3565b6000610332600a8461095e565b905060005b600a8110156104005760008561034d8484610972565b8151811061035d5761035d610801565b016020908101516040516001600160f81b03199091169181019190915242602182015260410160408051601f19818403018152919052805160209091012090506103a86002826107ed565b6000036103d55760018483600a81106103c3576103c3610801565b60ff90921660209290920201526103f7565b60008483600a81106103e9576103e9610801565b60ff90921660209290920201525b50600101610337565b5090949350505050565b610412610566565b61041c6000610593565b565b6001805461042b90610817565b80601f016020809104026020016040519081016040528092919081815260200182805461045790610817565b80156104a45780601f10610479576101008083540402835291602001916104a4565b820191906000526020600020905b81548152906001019060200180831161048757829003601f168201915b505050505081565b6000806104b7610280565b905060005b600a81101561051e578181600a81106104d7576104d7610801565b602002015160ff168482600a81106104f1576104f1610801565b6020020160208101906105049190610989565b60ff1614610516575060009392505050565b6001016104bc565b5060019392505050565b610530610566565b6001600160a01b03811661055a57604051631e4fbdf760e01b8152600060048201526024016101a1565b61056381610593565b50565b6000546001600160a01b0316331461041c5760405163118cdaa760e01b81523360048201526024016101a1565b600080546001600160a01b038381166001600160a01b0319831681178455604051919092169283917f8be0079c531659141344cd1fd0a4f28419497f9722a3daafe3b4186f6b6457e09190a35050565b604051806101400160405280600a906020820280368337509192915050565b634e487b7160e01b600052604160045260246000fd5b60006020828403121561062a57600080fd5b813567ffffffffffffffff8082111561064257600080fd5b818401915084601f83011261065657600080fd5b81358181111561066857610668610602565b604051601f8201601f19908116603f0116810190838211818310171561069057610690610602565b816040528281528760208487010111156106a957600080fd5b826020860160208301376000928101602001929092525095945050505050565b6101408101818360005b600a8110156106f557815160ff168352602092830192909101906001016106d3565b50505092915050565b60006020808352835180602085015260005b8181101561072c57858101830151858201604001528201610710565b506000604082860101526040601f19601f8301168501019250505092915050565b600061014080838503121561076157600080fd5b83818401111561077057600080fd5b509092915050565b60006020828403121561078a57600080fd5b81356001600160a01b03811681146107a157600080fd5b9392505050565b634e487b7160e01b600052601160045260246000fd5b808201808211156107d1576107d16107a8565b92915050565b634e487b7160e01b600052601260045260246000fd5b6000826107fc576107fc6107d7565b500690565b634e487b7160e01b600052603260045260246000fd5b600181811c9082168061082b57607f821691505b60208210810361084b57634e487b7160e01b600052602260045260246000fd5b50919050565b601f821115610899576000816000526020600020601f850160051c8101602086101561087a5750805b601f850160051c820191505b8181101561027857828155600101610886565b505050565b815167ffffffffffffffff8111156108b8576108b8610602565b6108cc816108c68454610817565b84610851565b602080601f83116001811461090157600084156108e95750858301515b600019600386901b1c1916600185901b178555610278565b600085815260208120601f198616915b8281101561093057888601518255948401946001909101908401610911565b508582101561094e5787850151600019600388901b60f8161c191681555b5050505050600190811b01905550565b60008261096d5761096d6107d7565b500490565b80820281158282048414176107d1576107d16107a8565b60006020828403121561099b57600080fd5b813560ff811681146107a157600080fdfea2646970667358221220a26b5d745eb6cc5fcfcca07bc12ab099959f3ea487f4a3a9cf3ff009432ad33664736f6c634300081800334974206973206120676f6f6420707261637469636520746f20726f74617465207365656473206f6674656e20696e2067616d626c696e67","linkReferences":{}},"methodIdentifiers":{"getFlips()":"5ff7a0bd","myContract()":"bc33657a","owner()":"8da5cb5b","renounceOwnership()":"715018a6","seed()":"7d94792a","seedRotation(string)":"27236822","transferOwnership(address)":"f2fde38b","userInput(uint8[10])":"ddabf9b2"},"id":11}